:0200000470107A
:1000000053544D32000000000000000000000000CA
:1000100000000000000000000000000000000000E0
:1000200000000000000000000000000000000000D0
:1000300000000000000000000000000000000000C0
:1000400000000000000000000000000000000000B0
:1000500000000000000000000000000000000000A0
:10006000000000003DA19F03000302000093120066
:100070000D8D013400000000FFFFFFFF00000000B5
:100080000000000000000080A0010000100000003F
:100090000000000000000000000000000000000060
:1000A0005354FFFFA0010000400E1FFE4073932633
:1000B000526BB83B1EB96440ACD2587C16A4F1BC5C
:1000C00043D3DDD59726B0EA650307676C18605205
:1000D0007EE675864262B1F789E9526A3958C9BA33
:1000E0001F438CF9BDF8F456AC0E477CBC600394FA
:1000F0008F59AB336BF6A9EF980F95906ADA841499
:10010000D5591EDF0EE03EBEC1C00FF098FC1BF8B3
:100110007829A03B88C9CF25939AA0840B6889438E
:100120005A913CAA96C4CDDBFCDAB4C55808AA3D66
:100130007724AD10F7DFE9757397D5433CF521E2DD
:100140001A35D6F32F5773467FF1EE55F6C67E74F7
:10015000692EDE0CE95D00FC0D2EB2B0FAC9922AC0
:10016000BA798000AF0CBCA9D0CB3283C5C9E76D8A
:10017000BC220924183A42944D000D15F831734AF7
:100180008F53F0E31245160CEFA37BC33252AE7CC3
:10019000C760E01564D89A1D2975E47F20409BFD57
:1001A000997CDCEB971D693BCB32627FB7DCCFD308
:1001B00000356047CBC5E0C897AC233C6A81BBB330
:1001C000B1D5DA5048E09EF6334DB171A8E129F07F
:1001D000E21C77FF23F3BDEAE195F8094683661137
:1001E000A57DCF68E6D2121899A3D61DBE1A7A82D1
:1001F000292C1E647F6223587D896DB4B5EAA18BDA
:10020000E618615F8B0A74AD154296BAAAF9E1E06F
:10021000C315995B436C80B999E027E76468940C37
:100220004C732F01BFE835A542DD6624FEC8657515
:10023000778A1F011239ED341C07BC87621E229792
:1002400000000000000000000000000000000000AE
:10025000000000000000000000000000000000009E
:10026000000000000000000000000000000000008E
:10027000000000000000000000000000000000007E
:10028000000000000000000000000000000000006E
:10029000000000000000000000000000000000005E
:1002A000000000000000000000000000000000004E
:1002B000000000000000000000000000000000003E
:1002C000000000000000000000000000000000002E
:1002D000000000000000000000000000000000001E
:1002E000000000000000000000000000000000000E
:1002F00000000000000000000000000000000000FE
:1003000000000000000000000000000000000000ED
:1003100000000000000000000000000000000000DD
:1003200000000000000000000000000000000000CD
:1003300000000000000000000000000000000000BD
:1003400000000000000000000000000000000000AD
:10035000000000000000000000000000000000009D
:10036000000000000000000000000000000000008D
:10037000000000000000000000000000000000007D
:10038000000000000000000000000000000000006D
:10039000000000000000000000000000000000005D
:1003A000000000000000000000000000000000004D
:1003B000000000000000000000000000000000003D
:1003C000000000000000000000000000000000002D
:1003D000000000000000000000000000000000001D
:1003E000000000000000000000000000000000000D
:1003F00000000000000000000000000000000000FD
:1004000000B014340D8D0134153700341737003423
:10041000193700341B3700341D3700341F370034C0
:100420000000000000000000000000002137003440
:10043000233700340000000025370034273700340C
:10044000698D013400000000698D0134698D01342B
:10045000698D0134698D0134698D0134698D0134F0
:10046000698D013400000000698D0134698D01340B
:10047000698D01342D2C0034698D01340000000099
:10048000698D013400000000698D0134698D0134EB
:10049000698D0134698D0134698D0134698D0134B0
:1004A000698D0134698D0134698D0134698D0134A0
:1004B000698D0134698D0134698D0134698D013490
:1004C000698D013447370034698D0134698D0134F9
:1004D000698D0134698D0134698D0134698D013470
:1004E000698D013400000000698D0134698D01348B
:1004F000698D0134698D0134698D01342B370034E5
:100500003937003400000000000000000000000047
:10051000698D01348D870134698D0134698D013411
:10052000698D0134698D0134698D0134698D01341F
:10053000698D0134698D0134698D0134698D01340F
:10054000698D0134698D0134698D0134698D0134FF
:10055000698D0134698D0134698D0134698D0134EF
:1007400000000000698D0134698D01340000000053
:1007500010B5054C237833B9044B13B10448AFF3FB
:1007600000800123237010BD40951234000000006A
:100770002401023408B5034B1BB103490348AFF30E
:10078000008008BD000000004495123424010234AA
:1007900090EDAD6A30B52DED108B90EDA87BB5EEE8
:1007A000C06A87B08DED027B002390EDA47BF1EE53
:1007B00010FA91ED015A91ED004A91ED02FB91ED95
:1007C00004EB044690ED123B90EDAACB90ED16ABF6
:1007D0008DED047B90EDA6BB80F8603009DCD0F88D
:1007E000C832D14898474FF0FF3007B0BDEC108BAE
:1007F00030BDB8EE455B9FEDBE7BB8EE444B25EEB9
:10080000077BB4EEC47BF1EE10FA0FDD90ED1C7B9C
:100810009FEDB92B37EE022B9FEDB97BB4EEC72BC2
:10082000F1EE10FA37FE027B80ED1C7B9FEDB67B6C
:1008300025EE075BB4EEC45BF1EE10FA10D594ED33
:100840001C7B9FEDAD5B37EE457B9FEDB15BB4EE5E
:10085000C57BF1EE10FA58BFB0EE475B84ED1C5B30
:1008600083EE0C8BBCEEC88BB8EE488B94F85050DE
:1008700028EE0C8B012DB7EEC66A40F0AC809FEDE0
:10088000A67B3FEE4E5B85EE07DB3FEE0E5B85EE13
:10089000079BB0EECD7BB4EEC76BF1EE10FAB0EE75
:1008A000C95B1FDBB4EEC56BF1EE10FA1ADB002357
:1008B00084F8783094ED1A7BB5EEC07BF1EE10FA37
:1008C00040F33481012384F860309DED027BB4EE67
:1008D000C7ABF1EE10FA40F13C819DED047B3AEE9E
:1008E00007BB28E1B4EEC56BF1EE10FA0CD589EE2A
:1008F0000D5B94EDAE6AB0EEC55BB7EEC66AB4EEC2
:10090000C65BF1EE10FAD5DAF7EECA0BB7EEC70BFD
:100910001FF0E2F8B2EE047BB7EEC00A20EE070B40
:10092000FCEEC87BB0EECE6BCDED017AB0EECF7BA6
:10093000B4EEC67BF1EE10FA62DCB5EEC0EBF1EE80
:1009400010FA62D538EE000B94ED3C7BB4EEC07B20
:10095000F1EE10FA03D5B0EE4BABB0EE470B94EDD1
:100960003A7BB4EEC07BF1EE10FA03DDB0EE4BAB98
:10097000B0EE470B80EE0C8BBCEEC88BB8EE488B0C
:10098000012D2CEE088B16D1B4F8E030022B3FD8A5
:10099000DDED017AB8EE677B04EBC30282ED207BCC
:1009A00082ED268B04EB0312013382ED2CDB82ED0A
:1009B0002E9BA4F8E03094F87830012B07D0FCEEA1
:1009C000C87B17EE903A019A93423FF473AF01232C
:1009D00084F860306EE7B0EECF7BB0EECE5BB4EE65
:1009E000475BF1EE10FA35FE077BB4EEC67BF1EE05
:1009F00010FA7FF65FAF9FED4A9BB0EE49DB83E7CD
:100A0000B5EEC0FBF1EE10FA9CD538EE400B9BE73B
:100A100094ED2A7B94EDAF6A38EE477BB7EEC66A59
:100A2000B0EEC77BB4EEC67BF1EE10FA56DB94ED68
:100A3000287B38EE477BB0EEC77BB4EEC76BF1EE98
:100A400010FA4BDD94ED320B94ED307B39EE400B18
:100A50003DEE477B20EE000BA7EE070B1EF000FDDE
:100A600094EDB07AB7EEC77AB4EEC70BF1EE10FA98
:100A700034D5DDED017AB8EE678B84F8785094F8C0
:100A80007830002B97D1102204F1880104F1800006
:100A90001CF0EAFB102204F1A00104F198001CF004
:100AA000E3FBD4E93023DDED017AB8EE677BC4E9DE
:100AB0002C23D4E9322384ED247BC4E92E23D4E90A
:100AC000342384ED2A8BC4E93023D4E9362384ED22
:100AD00034DB84ED369BC4E932236CE794F878303C
:100AE000012B04BF002384F87830C8E7AFF30080FF
:100AF0009A9999999999A93F7B14AE47E17A843FD5
:100B0000343333333333C33F333333333333C33F7C
:100B1000111111111111B13FCD3B7F669EA0F63F1F
:100B20000000000000000000C382023494F860302E
:100B3000002B7FF4CAAE88EE0C7BBCEEC77BB8EE10
:100B4000477B27EE0C7B84ED16BB84ED127B0120E6
:100B50004BE69DED02BBEEE790ED1A6BB5EEC06B78
:100B600090ED124BF1EE10FA90EDAA5BB0EE467BE1
:100B7000DFBF84EE057BBCEEC77BB8EE477B27EE7C
:100B8000057BB7EEC77B90ED3C5BB7EEC74AB4EE92
:100B9000C54BF1EE10FAC8BFB7EEC57B90ED3A5BDE
:100BA000B7EEC74AB4EEC54BF1EE10FA48BFB7EE48
:100BB000C57BB7EEC75AD0F8743230B580ED125B02
:100BC00093ED005AD0EDAC7AB4EEC75AF1EE675A05
:100BD000F1EE10FA4FF00001B0F8F83075FEA77A88
:100BE000013B8AB2934205D8442202FB030303F57A
:100BF000907311E000EB8204D4ED445A77EEA55ACD
:100C0000F4EEC75AF1EE10FA01F10101E9DB4423D9
:100C100003FB020202F59073B5EEC06BF1EE10FA21
:100C2000C0F8743205DC93ED007AB7EEC77A80ED38
:100C3000127B5A6803F1380142609A6803F1240478
:100C40008260DA68C2601A69026100F138025D6987
:100C50000C334561DD680C30C5601D69A342056138
:100C600051F8045B42F8045BF1D1012030BD10B5AE
:100C7000044690B070B10023084C40212370C4F8A2
:100C8000C802074B6846074A1CF0A4F96846D4F826
:100C9000C8329847204610B010BD00BF609512348E
:100CA000B090123403830234002814BF01204FF0A7
:100CB000FF30704780ED000A30B50C6844604C6826
:100CC00084608C68C460C96802F12404016100F189
:100CD000380115680C32456152F8085C0C30C5606B
:100CE00052F8045CA242056153F8045B41F8045BCE
:100CF000EFD130BD2DE9F04F2DED068B0E46B0EE55
:100D0000409BB0EE418B1D460446C7B0002800F062
:100D10008F819FEDCBAB80ED12AB0020CE494FF021
:100D20000008C4E91601C4E9A601C4E9AA01CB4937
:100D3000DFF85C93C4F8B0124FF07E51C4F8B412DF
:100D40004FF07C51C4E91A890FF2FC29D9E90089D6
:100D5000C4E91C89C4E9A4894FF00008C4F8B8129A
:100D6000BF49DFF83093C4F8BC124FF07F51002325
:100D7000C4E9A88901274FF00008C4F8C012711E09
:100D8000DFF8149388B20428C4E9A0890FF2C029BF
:100D9000D9E9008984F86030C4E9A289A4F8E03078
:100DA00084F87830A4F8787214D905234FF4807150
:100DB000AC4A06A81CF00EF9D4F8C83206A8984729
:100DC00084F85070204647B0BDEC068BBDE8F04F6C
:100DD000FFF7C2BE95ED007AB7EEC77AB4EEC70B47
:100DE000F1EE10FA12DDD4F8C8329F48984795ED1D
:100DF000007AB7EEC77A8DED009B8DED027B9B4AA2
:100E00004FF4807106A81CF0E5F8D5E74FF0440CCC
:100E10000CFB065818ED117AB7EEC77AB4EEC71B73
:100E2000F1EE10FA41D5D4F8C8329148984798EDC0
:100E3000007AB7EEC77A8DED008B8DED027B8D4A7F
:100E4000DEE70CFB08F705EB070944372F4499ED63
:100E5000007AD7ED007AB4EEE77AF1EE10FA08F1F5
:100E6000010A00F1010021DBD4F8C832824898471A
:100E700097ED007AB7EEC77A8DED047BCDF808A028
:100E800099ED007AB7EEC77A43468DED007B7B4A39
:100E90004FF4807106A81CF09DF8D4F8C83206A85B
:100EA0009847012384F850308CE718461FFA80F8E1
:100EB0004145C6D800234FF0440CB01E9FB2B94242
:100EC00039D884ED3A9B84ED3C8B0020A4F8F8607F
:100ED00083B2994200F1010000F28B800027B846EE
:100EE00004F1FC0A04F5907905EB070B09EB070008
:100EF000442259461CF069FCDBF8003008F1010877
:100F00004AF8043B1FFA88F39E4207F14407EBD8E6
:100F1000731E9BB2002E03F1010314BF1A46012277
:100F2000C4F8749204F5B271013A6AD1012384F8CD
:100F30005030237046E702EB8709B842D9ED007ABA
:100F40004FEA870807F1010A1ED908F10408904406
:100F500098ED007AB4EEE77AF1EE10FA14D8D4F8EE
:100F6000C8324748984798ED007AB7EEC77A8DEDBA
:100F7000047BCDF808A099ED007AB7EEC77A3B461E
:100F80008DED007B3F4A83E70CFB07F805EB080A71
:100F90009AED007AB4EEE77AF1EE10FA08F144081F
:100FA000A84408DA98ED007AB4EEE77AF1EE10FA88
:100FB00003F1010382D8D4F8C8323348984798ED3A
:100FC000007AB7EEC77A8DED047B9AED007AB7EE22
:100FD000C77A8DED027B99ED007AB7EEC77A3B4672
:100FE0008DED007B4FF48071284A06A81BF0F2FFBC
:100FF00053E702EB83073F6804EB8303C3F81071E8
:1010000066E7D4F8743291ED006A93ED007AB7EE9A
:10101000C66AB7EEC77A36EE4A6B37EE4A7BB4EE55
:10102000C76BF1EE10FA48BFC4F8741244317BE785
:101030004FF0FF3047B0BDEC068BBDE8F08F00BF2E
:10104000000000000088B3409A9999999999B93F96
:101050000000000000A06E400000F03F0000484289
:1010600000002F431383023457830234DE8302349B
:101070003C840234C48402342185023485850234E0
:10108000DD8502344C860234B68602340D87023484
:101090000000F0BF000008400000244030B50546C5
:1010A00014468DB052B9D0F8C8321D489847D5F8CB
:1010B000C8321C48984720460DB030BD93ED042B34
:1010C00093ED021B93ED000B0AAA08A906A800F0F5
:1010D0002FF8DDE90823CDE90223DDE90A23CDE974
:1010E0000423012398420446CDE90033DFD1694649
:1010F0002846FFF74DFB0128044603D0D5F8C83237
:101100000948D7E795F86030012BD4D12846FFF77E
:1011100023FD01280446CED0D5F8C8320348C9E7DC
:1011200093870234F48702341D88023451880234D4
:10113000B5EEC00BF1EE10FA1FB509D4B5EEC01B29
:10114000F1EE10FA04D4B5EEC02BF1EE10FA0DD585
:101150008DED022B8DED001B53EC102B44481BF042
:10116000C9FE4FF0FF3005B05DF804FB9FED327B08
:10117000B4EEC70BF1EE10FA09DCB4EEC71BF1EECA
:1011800010FA04DCB4EEC72BF1EE10FA07DD8DED9A
:10119000022B8DED001B53EC102B3648DFE728B1F6
:1011A00089B1B2B93449354B084607E071B13349CA
:1011B0003148002A304A314B18BF134602463048A6
:1011C0001BF098FECDE72C492C48F2E72B49084646
:1011D000EFE79FED1B7B9FED1C6B21EE077BB3EED2
:1011E000005BA0EE067B9FED1A6BA2EE057BA7EEDF
:1011F000065B9FED197B80ED005B27EE417BBBEE2C
:101200000A5BA0EE057B9FED165BA2EE057B27EE49
:10121000067B81ED007B9FED147B27EE411BB2EE38
:10122000047BA0EE051BA2EE471B21EE061B01204E
:1012300082ED001B97E700BF0000000000E06F4058
:101240000000000000A06340000000000080474054
:10125000000000000000703F0000000000805540CA
:101260000000000000005C400000000000805940C9
:101270008E880234CC88023488880234868802340E
:101280000C8902340000000010B5044690B060B133
:101290000023074C40212370A065064B6846064A90
:1012A0001BF098FE6846A36D9847204610B010BD0D
:1012B00030981234B690123456890234002814BF84
:1012C00001204FF0FF30704738220A23C0E9042381
:1012D00064232D227821C0E9063240F2DC5230B579
:1012E000C0E9081241F2707442F6E062C0E90A42B5
:1012F0000BA5D5E9004505224FF0000C026548F228
:10130000E802C0E910C20122C0E90C4506A5D5E9F2
:101310000045C0E91223C0E90E4530BDAFF300809F
:1013200000000040E17A943F000000E04D62703F11
:1013300010B5044620B1FFF7C7FF0120207010BD93
:101340004FF0FF30FBE72DE9F0410E460446002840
:1013500000F0E180017801290BD102210170A56C18
:10136000C4E90126B54208D2616C914205D9A56055
:101370004CE00229F3D0002049E0D4F810C0B6EECA
:10138000005B07EE90CAB8EE676A07EE903AB8EED7
:10139000E77BB7EEC66A37EE057B86EE070B216D5D
:1013A000B7EEC00B8B424BD2F0EE007AB4EEE70AF8
:1013B000F1EE10FA44D4616CB7EE007A8A4220D282
:1013C000012A134638BF012307EE903AF8EEE77A78
:1013D00067EE807AFDEEE77A17EE903A8B42C1BF56
:1013E00007EE901AB8EEE76A07EE902AF8EE676A01
:1013F000C3BFC6EE267A0B4680EE270AB0EE470A38
:101400006360B4EEC70AF1EE10FA02DC0120BDE819
:10141000F081B7EEC00A1DF0EFFFB3EE047B20EEC3
:10142000070B9FED3F7B20EE070BBDEEC00B10EED0
:10143000103AE26C33449342D4BFA360A260E5E764
:10144000ACEB0307E16987EAE770A0EBE77088423D
:1014500047D8606AD4F814E0A1690EEB0C089845EF
:1014600007FB01F143D207EE900A9FED2F7AF8EEC9
:10147000E77A67EE877A07EE101AF1EE676AB8EE40
:10148000C77AB4EEE67AF1EE10FA04D5FDEEE77A0B
:1014900017EE903A59420029B8D0B54232D1606C6B
:1014A000904201D800292DDA02FB077707EE902A37
:1014B00006EE907A0029B8EEE77BB8EEE66B1EDA0E
:1014C00094ED0E5BA5EE067BBDEEC77B17EE102AF2
:1014D000236C9A42B8BF1A468242D4BF62606060F1
:1014E00094E7216A88422CBFE06AA06AB2E7ACEBBD
:1014F0000E0C9C458ADD8142A8BF0146CBE794EDE6
:101500000C5BDFE70E44B5423FF731AFE56CB54207
:10151000A8BF35462BE74FF0FF3078E7AFF30080E8
:101520000000000000408F409A99593F034613F88D
:10153000012B002AFBD1181A013870477BB972B908
:101540000029BEBF00204FF0004106E008BF002880
:101550001CBF6FF000414FF0FF3000F0FBB9ADF160
:10156000080C6DE904CE002909DB002B1ADB00F022
:101570004DF8DDF804E0DDE9022304B07047404295
:1015800061EB4101002B1BDB00F040F8DDF804E0CB
:10159000DDE9022304B0404261EB4101524263EBBA
:1015A00043037047524263EB430300F02FF8DDF82A
:1015B00004E0DDE9022304B0404261EB41017047E1
:1015C000524263EB430300F021F8DDF804E0DDE96B
:1015D000022304B0524263EB4303704753B94AB944
:1015E000002908BF00281CBF4FF0FF314FF0FF302B
:1015F00000F0B0B9ADF1080C6DE904CE00F006F8CA
:10160000DDF804E0DDE9022304B070472DE9F04F76
:10161000099D884604468E46002B4AD18A421746C9
:101620005FD9B2FA82F64EB1C6F1200301FA06FE86
:10163000B740B44020FA03F343EA0E0E4FEA1748CE
:101640001FFA87FC230CBEFBF8F108FB11EE01FB2F
:101650000CF243EA0E439A4207D9FB1801F1FF301E
:1016600002D29A4200F2548101469B1AA2B2B3FB05
:10167000F8F008FB103300FB0CFC42EA03429445EF
:101680000BD9BA1800F1FF332CBF01240024944574
:1016900002D9002C00F03F81184640EA0140A2EB3D
:1016A0000C0200211DB1F2400023C5E90023BDE872
:1016B000F08F8B4205D90DB1C5E900010021084624
:1016C000F5E7B3FA83F100294ED14345C0F012810A
:1016D000824240F20F810846002DE8D0C5E9004E55
:1016E000E5E7002A00F0AC80B2FA82F6002E40F066
:1016F000BB808B1A4FEA124EBCB20121020C80B2A1
:10170000B3FBFEFC0EFB1C3342EA034304FB0CF26A
:101710009A420ED9FB180CF1FF382CBF4FF001098B
:101720004FF000099A4203D9B9F1000F00F0EC80A4
:10173000C4469B1AB3FBFEF80EFB183304FB08F4F7
:1017400040EA034294420BD9BA1808F1FF332CBF88
:1017500001200020944202D9002800F0D180984650
:10176000121B48EA0C409DE7C1F120068B4008FAA5
:1017700001F400FA01F922FA06F728FA06F88A407D
:101780001F4320FA06F3380C23431FFA87FC1C0C76
:10179000B8FBF0FE00FB1E8844EA08440EFB0CF880
:1017A000A0450ED93C190EF1FF3A2CBF4FF0010BAA
:1017B0004FF0000BA04503D9BBF1000F00F0B8803B
:1017C000D646A4EB08041FFA83F8B4FBF0F300FB41
:1017D000134403FB0CFC48EA0444A4450ED93C190D
:1017E00003F1FF302CBF4FF001084FF00008A44573
:1017F00003D9B8F1000F00F09F80034643EA0E4082
:10180000A4EB0C04A0FB02EC64457346E04602D353
:1018100007D1F14505D2BEEB02036CEB070C013892
:10182000E0465DB1B9EB030264EB080404FA06F686
:1018300022FA01F3CC401E43C5E90064002136E7DB
:10184000B1FBF2FC010C144680B2964641EA084115
:101850002026904640EA01431046B1FBF2F1A3EB8B
:10186000080341EA0C414BE7B740C6F1200301FAF7
:1018700006F221FA03F84FEA174E20FA03F3BCB23E
:10188000B0401343020C190C80B2B8FBFEF90EFBFA
:10189000198841EA084109FB04F8884551D97918AB
:1018A00009F1FF3C2CBF4FF0010A4FF0000A8845B8
:1018B00002D9BAF1000F31D0A1EB0801B1FBFEF95A
:1018C00009FB04F80EFB19119BB243EA014343459F
:1018D00035D2FB1809F1FF312CBF4FF0010A4FF050
:1018E000000A4345BBD2BAF1000FB8D1A9F10201F9
:1018F0003B44B4E7841A68EB030201209646EBE60A
:101900003A44A8F102082BE7ACF1020C3B4410E783
:1019100002393B44A9E63A440238BEE6A7EB080880
:10192000A9F1020C4144B1FBFEF909FB04F8C9E737
:10193000AEF1020E3C4444E7023B3C445EE74946BC
:101940008DE7A1EB0801CC46B1FBFEF909FB04F8D9
:10195000B8E700BF704700BF70B5002314461E22D1
:1019600092B0064601A80D46CDE90133CDE9032327
:10197000CDE905330FF012FB28B18C211A4B1B4A1D
:101980001B481AF029FB029BCDE90B00B3F5F07F51
:1019900028BF4FF4F07333602B60012502260D90B1
:1019A0006A46284607A9CDE90733CDE909560FF065
:1019B000AFF918B15A210F4B0F4AE1E74FF480738A
:1019C000CDE907330323CDE90B5009900D90224652
:1019D000304607A90A930FF09BF918B17C21054BFB
:1019E000064ACDE712B070BD80030234C9910234BB
:1019F00096030234F4030234B2910234A09102340B
:101A00000A4608B5014601200FF044FA28B19C218E
:101A1000024B034A03481AF0DFFA08BD8003023480
:101A20008A910234960302340A4608B50146022020
:101A30000FF030FA28B1A421024B034A03481AF0F0
:101A4000CBFA08BD80030234799102349603023444
:101A500008B50FF0F9FA28B1B221034B034A044844
:101A60001AF0BAFA08BD00BF800302346B91023449
:101A700096030234022808BF034A4FF0000002BF59
:101A80001368013313607047CC2613341FB5154B10
:101A90007C2101AA02A8029303F0F8FD0346E0B9F5
:101AA000019A02F4C031B1F5C03F17D042F4C03200
:101AB0007C2102A8019203F005FE68B97C2101AAED
:101AC00002A803F0E3FD30B9019B03F4C033B3F582
:101AD000C03F03D0FEE7FEE7FEE7FEE705B05DF896
:101AE00004FB00BF009000564FF4A8620121C0E93A
:101AF00000120F228260054AC260054A026100227C
:101B000042610022027614F041B900BF48E13A3F39
:101B1000CDCCCC3D13B50C46012C11461A4605D050
:101B2000D621074B074A08481AF056FA074B0B60B4
:101B3000036801A8019314F02DF902B010BD00BF95
:101B400002040234D2910234100402349098123408
:101B50002DE9F8430D46044600279046BDF82420A1
:101B6000BDF8209002FB03F6B94501D8BDE8F88323
:101B70002146284632461BF028FE354401374444AE
:101B8000F2E70000044B82B0C3F85C0AD3F85C3281
:101B90000193019B02B07047008002562DE9F74F78
:101BA00016464FF0000E4FF4707901901B48C76D38
:101BB00007EB41070C9CB01A844202DC03B0BDE87D
:101BC000F08FB6F5F07F02DB01369E44F2E74FF06E
:101BD000000C0198634500EB8E0A03F10100B8BFC9
:101BE000012009FB06780138EED00CEB0104B4F5B6
:101BF000F07F0DDAB8F800506C014FEAD52B04F4F1
:101C00007C44ED0044EACB44EDB22C434AF82C402E
:101C10000CF1010C08F10208E5E700BFA83113340C
:101C20002DE9F74F002517464FF4486A254CDFF899
:101C300098E0D4F89040019004EB8104CEF8005075
:101C400000940C98BC1AA04202DC03B0BDE8F08FEF
:101C5000B7F5F07F02DB01371D44F2E74FF00008D3
:101C6000009C43450AFB074903F10104B8BF012466
:101C7000019805EB45060644013CECD008EB010C4D
:101C8000BCF5487F18DA96F801C096F800B04FEA24
:101C90000C2C4CEA0B4C96F802B04CEA0B0B4BF0B8
:101CA0007F4CBBF1000F05D0DEF8000000F1010B06
:101CB000CEF800B0C9F800C008F1010809F1040924
:101CC0000336D9E7A83113349416133407EE901A6B
:101CD0002DE9F04F87B0B8EEE77ADDED107AF8EE37
:101CE000E77A87EE275A07EE902AB8EEE77ADDED1D
:101CF000117A0025F8EEE77AAE46C7EE274AB6EE2F
:101D0000004A01934B1E0493531E0593119B9E455D
:101D100080F294804FF0000C05EB45087DE007EE63
:101D200090CAF8EEE76A07EE90EA66EE856AF8EE8A
:101D3000E77ABBFE667A67EEA47ABDEEC77A17EE45
:101D400010BABBFE677ABDEEC77A17EE103A07EEFF
:101D500010BAB8EEC77A76EEC76A07EE103A0BF102
:101D60000107049EB942D8BF37465C1C059EA242BB
:101D7000D8BF3446B8EEC77A4B434C4303EB0B094C
:101D800037EEC76A3B44A3443C440027019E00EB66
:101D9000840406EB080A00EB8B060296039400EB22
:101DA000890900EB8303129CBB460137002C3CD110
:101DB0003C46029E032F365D07EE106A039E16F81E
:101DC00004B019F804601C5D07EE906AA4EB0604E9
:101DD00005EE904A17EE104AF8EEE55AF8EEE77A6B
:101DE000ABEB040BE5EEA67A05EE90BAB8EEC77A37
:101DF000F8EEE55AA5EEA67A37EE677AE7EE067AB0
:101E000077EE847AFCEEE77A17EE904A0AF8014BF7
:101E1000C9D10CF1010C08F10308109B9C45FFF699
:101E20007EAF0EF1010E1D4470E70BF1FF367442D8
:101E30007441BBF1000F08BF0224BAE707B0BDE848
:101E4000F08F1FB5069C0294A024CDE90044FFF753
:101E50003DFF04B010BD0000F0B587B01422002192
:101E600001A81BF01BFA4020FFF78CFE4FF48040C6
:101E7000FFF788FE214D0420FFF784FE204F10203D
:101E8000FFF780FE002228464FF4806106F07AFDBD
:101E900000223846022106F075FD00244FF48063CD
:101EA00001262846022501A9CDE90136CDE90344E2
:101EB00006F022FA384601A9CDE90156CDE90344DE
:101EC00006F01AFA4FF4005301934FF4041301A9DA
:101ED0000C480293039506F00FFA2246294621206A
:101EE00003F0C6FC212003F021FD074801A9CDE93C
:101EF0000164039506F000FA07B0F0BD0018025621
:101F0000003802560008025600100256B0F5005F75
:101F100004D1034B1A780AB901221A70704700BF26
:101F200090161334014B1878704700BF9016133485
:101F30000022014B1A7070479016133408B52DED2E
:101F4000048B9FED199A002A02F10103B0EE490AB1
:101F5000F0EE499AB8BF0123013B1AD1B7EEC00A8F
:101F60001DF07EFAB0EE408BB7EEC90A1DF078FA8C
:101F700028EE008BB7EEC88BB5EE408AF1EE10FA72
:101F800018BF89EE880ABDEC048B08BF9FED060AD6
:101F900008BDB0EC017AF1EC017AA7EE070AE7EE92
:101FA000279AA7EEA79AD7E7000000000021024A6F
:101FB00002481BF073B900BF0C080C000000009130
:101FC000014B1878704700BF00500091092810D8C5
:101FD00045F20102084B19188A5C4FF4963101FB57
:101FE0000030002A00F5A04000F10B0008BF0020DF
:101FF00070470020704700BF000000912DE9F041BC
:10200000B1F5007F2DED028B0646154624D118B39D
:1020100012B300249FED128ADFF84880A8F5A0478C
:1020200018F8013F8BB14FF4007239463046FFF784
:1020300085FFB4EEC80AF1EE10FA06DB85ED000A62
:10204000BDEC028B2046BDE8F08101340A2C07F577
:102050000067E5D100232B604FF0FF34F0E700BFAD
:10206000CDCCCC3E005000912DE9F84FB1F5007F6A
:102070002DED028B074690464CD100284AD0002A0D
:1020800048D0264E0024A6F5A045B346B146AA4640
:102090009FED238A1BF8013F3BBB01340A2C05F559
:1020A0000065F7D1002516F8013F63BB4FF40062CD
:1020B00039460AEBC5201BF088FB4FF4963202FB31
:1020C00005A000F5A04041460B301BF07EFB01202F
:1020D00045F201035544E85499F80030034489F867
:1020E0000030BDEC028BBDE8F88F4FF4007229463A
:1020F0003846FFF723FFB4EEC80AF1EE10FACCDB46
:102100006FF00100EDE7013C05F10105CBD16FF067
:102110000200E6E74FF0FF30E3E700BF0050009118
:10212000CDCC4C3F044B82B0C3F84C0AD3F84C32B0
:102130000193019B02B0704700800256044B82B0AD
:10214000C3F88C0AD3F88C320193019B02B070471C
:1021500000800256044B82B0C3F8A00AD3F8A03224
:102160000193019B02B0704700800256027D4368D4
:1021700002B11B68806818447047000030B5ADF5A7
:102180001B7D4022002168461BF088F89822002120
:1021900010A81BF083F84FF4C872002136A81BF07A
:1021A0007DF8012001F084FE0124002319227D2105
:1021B0000225CDE91D32CDE925140822E121CDE922
:1021C0001A53CDE92153CDE92323CDE92932CDE9B5
:1021D0002B31CDE92F53CDE931231093062310A8DD
:1021E000CDE91F44CDE92745CDE92D45CDE934336F
:1021F0001C95339107F0DCFF00B1FEE74FF440334C
:102200007F22CDE900234FF0407302934FF08053BB
:10221000CDE90C344FF00053CDE90E344FF4801368
:10222000CDE90804CDE90A05CDE90330CDE9050083
:102230000790684608F0B8FB00B1FEE7084B0022A3
:1022400061934FF44003CDE93623064B36A86293E1
:1022500008F060FF00B1FEE70DF51B7D30BD00BF4B
:1022600014000003140400032DE9F04FCC4A9BB086
:10227000136843F400531360CA4B1A6A22F44032C5
:102280001A621A6A22F040721A6203F087F9C64B8A
:102290005A6912F4003211D1BFF34F8FBFF36F8F21
:1022A000C3F85022BFF34F8FBFF36F8F5A6942F4C8
:1022B00000325A61BFF34F8FBFF36F8FB84A136874
:1022C00043F480531360A2F57342536913F48033CF
:1022D00028D1C2F88430BFF34F8F43F6E074D2F8B0
:1022E0008030C3F3C900C3F34E335B0100F1010E2C
:1022F00001464EF001E003EA040646EA8175C2F8A1
:10230000605201390FF007C8203B13F1200FEDD1C7
:10231000BFF34F8F536943F480335361BFF34F8F43
:10232000BFF36F8F4FF000484FF4805A00259D4C4B
:10233000FFF724FFC4F8608AD4F86032DFF8BCB23B
:102340000993099B0120C4F8208ACBF82082FFF76B
:10235000E9FE0220FFF7E6FE0420FFF7E3FE082077
:10236000FFF7E0FEC4F854AAD4F8543215A8089335
:10237000089B8E4BCDE91655159307F0F5FC8C4B59
:1023800015A8159307F0F0FC8A4B15A8159307F0D4
:10239000EBFC894B15A8159307F0E6FCFFF776FBDD
:1023A00001F088F901F090F9284602F0FFFD284677
:1023B00002F020FF40F201134FF4007903260227B8
:1023C00006A92846ADF8183002F0ACFC284602F009
:1023D00017FCC4F8589AD4F8583201200A9315A96A
:1023E0000A9BCDE915760DF0C3FC082015A90DF068
:1023F000BFFC092015A90DF0BBFC0A2015A90DF0A2
:10240000B7FC0B2015A90DF0B3FC31466B480DF05D
:1024100005FD31466A480DF001FD314669480DF071
:10242000FDFC314668480DF0F9FC314667480DF077
:10243000F5FC314666480DF0F1FC314665480DF07B
:10244000EDFC4FF48063C4F8583AD4F858222020A9
:102450000B920B9A0422C4F8183ACBF81832FFF703
:1024600079FE5046FFF776FE4046FFF773FE4FF0C9
:102470008040FFF76FFEC4F8BC7AD4F8BC3238460F
:102480000E930E9BFFF766FEC4F8BC2AD4F8BC324C
:1024900048460D930D9B4023C4F8BC3AD4F8BC3297
:1024A0000C930C9BFFF74AFE8020FFF747FE4FF48A
:1024B0008070FFF743FE0120FFF740FE3846FFF72C
:1024C0003DFE1046FFF73AFE0820FFF737FE01F009
:1024D0002FF8044601F030F801462046FFF746FE8B
:1024E0003D4B1860382000FB05F3CA58002A40F025
:1024F0001481052D00F3138110AFCE180DF154088F
:10250000B14240F01281D4E902320026D31A059379
:10251000079601F0C3F8044601F0C4F801462046CE
:10252000FFF724FE2D4B2E4C18600846FFF71EFEC9
:102530002C4BA4F10C0A18602B48FFF7D5FA214662
:1025400007AA201FFFF708FA0121304602F066FAB9
:1025500054F80C1CDAF80830244C0B44DAF8042048
:102560006360DAF80C30224F1344E36002232160E9
:10257000A2603146224630462361676102F05AFA72
:102580001C4B186859689A68DB6802440B44C4E91C
:102590000336194B2060A1606260012122462FE0C2
:1025A00000E001E00080025600ED00E00031025240
:1025B0008031025200320252803202520A00003050
:1025C000050000301C0000201D0000200600003027
:1025D0000700003008000030C82613349C2613344E
:1025E0004891123498261334D0261334B02613346D
:1025F00020244A912C91123420441B9100900256C1
:102600003046636102F016FA984812F0CBFF0120C1
:1026100012F0F8FF304613F05FFA954813F028F8EF
:102620004FF0FF3013F014F8FFF716FCFFF7BEFC75
:1026300031463846FFF7E4F9FFF70AFA079B042111
:10264000B3F5407F14BF8B4B8B4B1868FFF7ECF949
:102650008A4B1A68002AFCD000221A60079BB3F547
:10266000407F45D08348016801F01F02BFF34F8FC0
:10267000D31C1C3A5B09203203F1010ED8BF4FF086
:10268000010E4EF001E07E4CC4F85C1220310FF0D8
:1026900005C8BFF34F8FBFF36F8F4FF480730326CE
:1026A000CDE90036744C079A21680068FFF750FAAC
:1026B000059A2368002A1BDD03F01F011144BFF3B4
:1026C0004F8FDA435C18224420395209203102F13D
:1026D000010ED8BF4FF0010E4EF001E06848C0F87F
:1026E000703220330FF005C8BFF34F8FBFF36F8FE9
:1026F000644C02F071FF644815F068FC02F06CFF56
:1027000022462946614B10A8FFF704FA8046C0B163
:1027100040F227115E4B5F4A04E00135E3E6D12128
:102720005D4B5C4A5D4819F057FC0846FFF71EFDFB
:10273000D1E902239B1A47F8040B48F8043B3831CF
:10274000DEE6D4E90063039300230F93544B55480E
:102750001968554B012200FB0131544807F072FA09
:1027600020B14FF4F471524B524ADBE7B146474671
:1027700046465148CDF80080D0E90223D0E9000157
:1027800013F06AF9CDF81080DDE90332934240F08E
:10279000A1809BB912F074FFC1880322474B01EB63
:1027A000C101039800F09AFF12F06AFFC1880A2065
:1027B00003224143424B039800F090FF12F060FF68
:1027C000C488FFF7FDFB214602223E4B009000200B
:1027D00000F084FF12F054FFC1881520032241430A
:1027E000394B0020009600F079FF12F049FFC188B4
:1027F000162003224143354B0020009700F06EFF66
:102800004FF0804012F02CFF12F03AFF0122C188F5
:10281000039B9140009300202D4B214C00F05EFF64
:10282000002012F01DFF22681E491F4B01FB0233DE
:10283000BFF34F8F45F6C05E4EF001E0104AC2F87C
:10284000683220330FF005C8BFF34F8FBFF36F8F8F
:1028500001220221154807F0CDF9002800F08C81F3
:1028600040F28B21124B134A5CE700BFDCEF1134BE
:102870005C921234A4261334C8261334CC261334A5
:1028800000ED00E0A8261334CC901234D026133487
:10289000F404023428920234760402349904023497
:1028A000A02613340070170020441B91A831133464
:1028B000F4030234E69102342C91123438050234C8
:1028C00043050234600502346F0502347505023495
:1028D0007B050234D9ED026A9AED027AB6EE006AFF
:1028E000D9ED007AF8EE475AE6EEC67A67EEA57A99
:1028F000FCEEE77A99ED037A17EE904AD9ED017A6A
:10290000E7EE467A9AED036AB8EE466A67EE867A93
:1029100066EEA56AFCEEE77A27EE067A17EE90BA25
:10292000FCEEE67A17EE906AFCEEC77ADAF8002041
:10293000DAF808301444DAF80C101A44DAF80430E3
:1029400002F1FF3C0B44944228BF6446581E9B454D
:1029500017EE907A28BF834606EB040E7245ACEB67
:10296000040C07EB0B0298BF664693424FF00A0235
:10297000D9F81430A0EB0B0098BF074693FBF2F098
:1029800002FB1033934A594652F823302046324610
:1029900000933B4613F03EF8D9F814208E4B59466D
:1029A00053F822302046032200F098FE99ED047A75
:1029B000DFED8A7A27EE277AB7EEC77AA0198DED78
:1029C000007B02225946864B404200F087FE334688
:1029D0005A468448A4F1A0010097FFF7DFF80123CD
:1029E0003A4631467F4800937F4BFFF72AFAA023EF
:1029F0000022009311467C48FFF712F97B4815F03E
:102A0000B9FC4FF4963EDFED7A6A4EF001E0794B67
:102A1000754A1B6812F8011B07EE901AF8EE677AE8
:102A200087EEA67AA3EC017A0FF00DC06F4815F07F
:102A3000CDFA4FF4007E4EF001E06F4B1A686F4BF9
:102A400052F8041B43F8041B0FF007C0FFF76AFAA3
:102A5000012819D14FF40062684969481AF0B5FE9F
:102A60004FF40071604A6648FFF7FEFA411C4ED1F0
:102A700012F006FE634BC1880222002001EB4101E7
:102A800000F02CFEFFF754FAFFF79AFA00284CD01A
:102A90004FF4006259495A481AF097FE4FF40071FA
:102AA00057480FAAFFF7AAFA431C04463FD0012259
:102AB0004FF48061544805F065FF0122022153481C
:102AC00005F060FF12F0DCFDC1880322504B01EBE2
:102AD000C1010020009400F001FE12F0D1FD9DED37
:102AE0000F7AC188B7EEC77A0A208DED007B41438B
:102AF0000322484B002000F0F1FD2046FFF766FA64
:102B0000A023F02200210093FFF78AF82EE0821C18
:102B100004D112F0B5FD404BC188ADE70330B1D10F
:102B200012F0AEFD3D4BC188A6E700230F9312F0D3
:102B3000A7FDC18803223A4B01EBC101002000F040
:102B4000CDFD12F09DFDC1880A2003224143354B83
:102B5000002000F0C3FD00224FF480612A4805F0F8
:102B600011FF00220221294805F00CFF049B09F106
:102B700018090133049307E623682B4EC3F10103C0
:102B8000236015A810AC45453FF456AD50F8042B12
:102B9000002A1CDD54F8283003F01F011144BFF354
:102BA0004F8FDA435F183A4420395209203102F13D
:102BB000010ED8BF4FF0010E4EF001E0C6F85C32B6
:102BC00020330FF005C8BFF34F8FBFF36F8F08F1AD
:102BD0000108D8E75C9202344C9112340000C842DC
:102BE000FD04023420340D9120080C91FC90123425
:102BF00000007F439C26133498261334981E133408
:102C00009816133404050234001802560038025690
:102C10004B050234570502341105023425050234F0
:102C2000380502344305023400ED00E0FEE700B54C
:102C3000E5B04FF4C872002168461AF02FFB00235C
:102C40001022CDE900234FF400134FF0805132934E
:102C500003236846CDE9221308F05CFA48B9002343
:102C60000822CDE90023282324906846259308F004
:102C700051FA65B05DF804FB07B54FF080424FF4A0
:102C80008060FFF74FFA084BC3F8602AD3F8601250
:102C900001910199C3F8202A03F58053C3F820223B
:102CA00003B05DF804FB00BF0080025600BEFEE7E3
:102CB00030B5134D6B69DB031FD50A1A002A1CDDE2
:102CC00000F01F031A44BFF34F8F8418C2431B1A2E
:102CD0000B442244203B5209203302F1010ED8BF9D
:102CE0004FF0010E4EF001E0C5F85C0220300FF00D
:102CF00005C8BFF34F8FBFF36F8F002030BD00BFFB
:102D000000ED00E030B5134D6B69DB031FD50A1AE7
:102D1000002A1CDD00F01F031A44BFF34F8F8418F4
:102D2000C2431B1A0B442244203B5209203302F1B8
:102D3000010ED8BF4FF0010E4EF001E0C5F8680259
:102D400020300FF005C8BFF34F8FBFF36F8F002007
:102D500030BD00BF00ED00E030B5134D6B69DB0303
:102D60001FD50A1A002A1CDD00F01F031A44BFF306
:102D70004F8F8418C2431B1A0B442244203B520934
:102D8000203302F1010ED8BF4FF0010E4EF001E0EA
:102D9000C5F8700220300FF005C8BFF34F8FBFF3A6
:102DA0006F8F002030BD00BF00ED00E001490248F8
:102DB000FFF77EBF00D220340069203408B50549F2
:102DC0000548FFF775FFBDE8084004490448FFF7D0
:102DD0006FBF00BF002A2034801F2034003F203402
:102DE0008034203401490248FFF762BF002A2034B2
:102DF0000015203401490248FFF75ABF00A02234D1
:102E00000050213401490248FFF752BFC0AF2234BD
:102E100080AA223401490248FFF74ABF40552134B5
:102E20000000203401490248FFF742BF40602034CF
:102E30000050203401490248FFF73ABF407623345E
:102E40004035233401490248FFF732BF00A0203447
:102E50000080203401490248FFF72ABF00042534CE
:102E60000000243401490248FFF722BF00C02A3481
:102E700000802A3408B505490548FFF719FFBDE869
:102E8000084004490448FFF713BF00BF0000223484
:102E90000000203400802A3400002A3408B5094993
:102EA0000948FFF705FF09490948FFF701FF0949EC
:102EB0000948FFF7FDFEBDE8084008490848FFF74C
:102EC000F7BE00BF0000213400002034008024340D
:102ED00000002434000026340000253400402C3447
:102EE00000002C3430B5AFB0B422002101A81AF094
:102EF000D5F905204FF4D2524FF4A861CDE9062050
:102F0000CDE90210CDE90D100A921421119204228C
:102F10002A23CDE9121214924FF4D2428DF80430D4
:102F20000123144C144DCDE9152402F1E242A2F51F
:102F30001E02A2F5E552219201A802F56872CDE9C0
:102F40000433CDE90833CDE90F338DF830308DF8F7
:102F50005C301C938DF8883027932C928DF8B43018
:102F60000B9515F035FD29462046FFF7CBFE2FB017
:102F700030BD00BF000020340069203437B50D4D4E
:102F80000D4C29462046FFF793FE0021084613F01A
:102F900023FC00230122CDE900320323074A19460E
:102FA000074814F063FB2946204603B0BDE83040D3
:102FB000FFF7A8BE40832034006920343011033469
:102FC000A011033437B50D4D0D4C29462046FFF7AF
:102FD0006FFE0021084613F0FFFB092303220221A4
:102FE000CDE9003207480123074A14F03FFB294688
:102FF000204603B0BDE83040FFF784BE40D5223400
:1030000000C522343C0D0334CC0C033437B50D4DD0
:103010000D4C29462046FFF74BFE0021084613F0D1
:10302000DBFB042305220221CDE9003207480123FE
:10303000074A14F01BFB2946204603B0BDE8304088
:10304000FFF760BE00C5223400842234AC0B033489
:103050003C0B033437B50D4D0D4C29462046FFF788
:1030600027FE0021084613F0B7FB012300220221AE
:10307000CDE900230748084A14F0F8FA294620460B
:1030800003B0BDE83040FFF73DBE00BF40F523343C
:10309000409523341C0A0334AC09033437B50D4D75
:1030A0000D4C29462046FFF703FE0021084613F089
:1030B00093FB092300220221CDE9003207480123B6
:1030C000074A14F0D3FA2946204603B0BDE8304041
:1030D000FFF718BE00842234008021348C080334AA
:1030E0001C08033437B50D4D0D4C29462046FFF71B
:1030F000DFFD0021084613F06FFB092300220221A7
:10310000CDE9003207480123074A14F0AFFA2946F7
:10311000204603B0BDE83040FFF7F4BD00C02634C0
:1031200000002634FC0603348C06033437B50D4DFD
:103130000D4C29462046FFF7BBFD0021084613F041
:103140004BFB082309220221CDE900320748012365
:10315000074A14F08BFA2946204603B0BDE83040F8
:10316000FFF7D0BD00002334000020346C05033489
:10317000FC04033437B50D4D0D4C29462046FFF7AE
:1031800097FD0021084613F027FB0823092202219E
:10319000CDE9003207480123074A14F067FA2946AF
:1031A000204603B0BDE83040FFF7ACBD000023343B
:1031B00000802134AC0203343C02033430B5114D9D
:1031C000114C87B029462046FFF772FD00210846C2
:1031D00013F002FB082307220293CDE903234FF4E7
:1031E000A86304220949CDE90032094802234FF4BB
:1031F000286214F085FC2946204607B0BDE830401F
:10320000FFF780BD00152034800A20344C100334B1
:103210008410033430B5114D114C87B02946204637
:10322000FFF746FD0021084613F0D6FA02230622D6
:103230000821CDE903320422CDE901214FF4A8622F
:103240000849009208484FF4286214F059FC2946B6
:10325000204607B0BDE83040FFF754BD800A203457
:1032600000002034C40F0334FC0F033430B5114D7B
:10327000114C87B029462046FFF71AFD0021084669
:1032800013F0AAFA022306220821CDE903324FF4F3
:10329000A86241230092CDE9013108480123084981
:1032A00014F02EFC2946204607B0BDE83040FFF759
:1032B00029BD00BF80AA223440A52234BC0E0334AD
:1032C000840E033430B5124D124C87B02946204687
:1032D000FFF7EEFC0021084613F07EFA00230122DE
:1032E0000821CDE903324123CDE901314FF4A86330
:1032F0004FF4A832009308494023084814F000FC1A
:103300002946204607B0BDE83040FFF7FBBC00BFB0
:1033100040A5223440552134FC0D0334340E0334CF
:10332000F0B5354DD3B029463448FFF7C1FC4FF412
:10333000A4720021684619F0B1FF4FF4A8304FF491
:10334000A8410923CDE90501CDE910018DF8003030
:103350007D2101230422CDE91813CDE91A3110246F
:103360004FF4A8664FF4FA71CDE90343CDE9074362
:10337000CDE90E43CDE91243CDE90126CDE90C2676
:10338000CDE91C12CDE91E211D4F1E4E1E4C1F4AB9
:103390008DF82C308DF858301793099014900A97B7
:1033A000159620942B9202F568723692A2F56472FB
:1033B000419202F568724C92182215496846CDE98F
:1033C0004E126FF07B028DF88430CDE950232693A6
:1033D00031938DF8DC303C9347938DF8343115F000
:1033E00093FB39463046FFF78DFC29462046FFF710
:1033F00089FC53B0F0BD00BF00A22234E0A122340A
:10340000005021340000203400A02234404C62706F
:1034100080AC845930B5104D104C85B029462046FB
:10342000FFF746FC0021084613F0D6F903230922D2
:10343000CDE902320A4B0B4A01930B4B0B49009327
:103440000B480C4B14F014F82946204605B0BDE893
:103450003040FFF757BC00BF00502134000020343B
:10346000340F03343C0F0334380F0334040F033498
:10347000740F0334240F033430B50E4D0E4C85B059
:1034800029462046FFF714FC0021084613F0A4F952
:1034900006230722CDE9013202230121074A0093C6
:1034A000074813F0D7FF2946204605B0BDE8304055
:1034B000FFF728BC0000253400002334A4030334A4
:1034C0001404033430B50E4D0E4C85B02946204609
:1034D000FFF7EEFB0021084613F07EF906230722D2
:1034E000CDE9013202230121074A0093074813F076
:1034F000B1FF2946204605B0BDE83040FFF702BCC9
:103500000000243400002334E40003345401033465
:103510000320704700207047032070470020704749
:103520000120704701207047004870478012033423
:103530000048704724000334004870478CFF023471
:103540000048704788A5023430B5AFB0B4220021DE
:1035500001A819F0A3FE2A234FF400728DF804305D
:1035600001230421CDE90423CDE90F23CDE906226F
:103570000A9211924FF40062CDE91221CDE91412A2
:10358000114A124D124C0DEB0100219202F5076217
:10359000CDE90233CDE90833CDE90D338DF8303074
:1035A0008DF85C301C938DF8883027932C928DF821
:1035B000B4300B95169415F00BFA29462046FFF708
:1035C000A1FB2FB030BD00BF30786D7300082034F0
:1035D0000000203401490248FFF76ABB000A20348A
:1035E0000008203410B5AEB0B422002101A819F0B3
:1035F00055FE4FF4F0644FF49631A02228230320A7
:103600004FF00C0CCDE90614CDE90222CDE90D22D4
:1036100004244FF4F0724FF4962E8DF804300123F9
:10362000CDE908C4CDE91220114C124ACDE90403BA
:10363000CDE90AE4CDE90F0304F59624219201A80F
:1036400002F50762CDE9143111918DF85C301C93BD
:103650008DF8883027932C928DF8B430169415F09D
:103660001BF920460449FFF74DFB2EB010BD00BFEB
:103670000000203420786D7300DC2534032070476F
:1036800000207047032070470020704701207047DA
:103690000120704700487047A0DA0834004870479E
:1036A00030DA083400487047A0D908340048704721
:1036B000C07008340248034B036002F097B800BFA3
:1036C000F026133400FC0D5810B5034C204602F0D0
:1036D00059F80228FAD010BDF026133408B4F3B517
:1036E00004460D46164607AB094F53F8042B30210C
:1036F0003846019319F016FD33463A4629462046CE
:1037000012F03EF902B0BDE8F04001B0704700BFD2
:10371000FC2613347047FEE7FEE7FEE7FEE7FEE710
:103720007047FEE7FEE701F04BBF08B50DF0ECFA7D
:10373000BDE8084002F008BE08B50DF0E5FABDE8A6
:10374000084002F0CBBC4FF4005005F037B901201F
:10375000704708B519F0F6FF162303604FF0FF30ED
:1037600008BD08B519F0EEFF16230360FEE770B53B
:103770000D4614460E46731B9C4201DC204670BD6C
:10378000AFF3008006F8010BF5E770B50D4614465F
:103790000E46731B9C4201DC204670BD16F8010BDF
:1037A000AFF30080F5E74FF0FF3070474FF4005360
:1037B00000204B60704701207047002070472DE9C2
:1037C000F04198B0054617460E463C22002106A857
:1037D00098461E9C19F062FD1022002101A819F0E4
:1037E0005DFD022305930423002C089314BF80235E
:1037F000A0234FF4806107934FF44053CDE90C139D
:103800004FF40063B8F1000F0E9314BF4FF0A063A4
:103810004FF0806313934FF0006315934FF0005304
:10382000013F41F28832284605A9169717930CF0FC
:10383000E1FD20B14FF0FF3018B0BDE8F081012369
:103840000593B4FA84F35B095B01013E41F28832CF
:10385000284605A9079316960CF0CCFD0028E9D15F
:10386000019001A928460CF0F3FF003818BF012091
:103870004042E1E730B597B00D46044600218DF88F
:10388000072003A84C2219F009FDC02304224FF49D
:103890008061CDE905324FF44053CDE90A134FF46E
:1038A00000630C934FF08063099511934FF000650E
:1038B000022341F28832204603A9CDE912350CF0EB
:1038C00099FD60B941F2883220460DF107010CF0F4
:1038D000A9FE003818BF0120404217B030BD4FF09C
:1038E000FF30FAE74FF000624FF48033C0E9002365
:1038F0004FF480524FF40063C0E902324FF40043AA
:103900004FF48071C0E9043283614FF40023C0E9B1
:1039100007130020704770B50D4698B00021064689
:10392000144605A84C2219F0B9FC1422002168465F
:1039300019F0B4FC2DB9012C4DD14FF0FF3018B067
:1039400070BD042204F1FF3CDCF1000343EB0C03E7
:10395000DB0008920A93002D40D0102340F2FA5267
:1039600009934FF48063601E0C93434243410792D6
:10397000DA020E924FF44052002D0D9214BF4FF018
:1039800080624FF080724FEAC363139215932DD07B
:10399000012C26D10523169302224FF000531793D2
:1039A0000123102101934FF480031492CDE90331D8
:1039B00041F28832304605A90CF01CFD0028BCD12C
:1039C00041F28832694630460CF0C6FE003818BF16
:1039D00001204042B3E701222B46BAE705222B46DD
:1039E000C1E70423169301220023D8E7012CFAD162
:1039F000D2E770B50C4698B000210646154605A8DA
:103A00004C2219F04BFC1022002101A819F046FCB1
:103A1000012C44D11DB94FF0FF3018B070BD059492
:103A200004221023CDE908234EF613424FF480639D
:103A3000002D0C9314BF4FF440534FF40053002C4F
:103A400007920CBF4FF080724FF080620D930CBF55
:103A500008230A231392304641F2883205A91693AF
:103A60000CF0C8FC0028D6D1022305931CBB002D06
:103A700018BF12230793002341F28832304605A96C
:103A800016930CF0B7FC0028C5D1019001A930466F
:103A90000CF0DEFE003818BF01204042BDE70123D4
:103AA0000593002CBCD1002D089314BF0C220B22CF
:103AB0004FF48073BCE741F2ED23DBE730B510250E
:103AC00099B004463C22002106A819F0E7FB2A46DB
:103AD000002101A819F0E2FB0123059304230893B8
:103AE0000823CDE909534EF6116307934FF4806321
:103AF0004FF4006E0C934FF44053CDE90D3E4FF060
:103B000080634FF0006113930A23CDE915134FF042
:103B1000005341F28832204605A917930CF06AFC45
:103B200018B14FF0FF3019B030BD0223059341F2B8
:103B3000ED23CDE9160041F28832204605A907930E
:103B40000CF058FC0028ECD1019001A920460CF0A3
:103B50007FFE003818BF01204042E4E7F0B50C4674
:103B600099B000210646154605A84C2219F096FB8F
:103B700014220021684619F091FB2CB9012D5DD16A
:103B80004FF0FF3019B0F0BD0422691E4B424B418B
:103B9000DB0008920A93002C53D01023099340F2C3
:103BA000F96341F28832304605A907930CF022FCF4
:103BB00003460028E4D1002C05F1FF3240F2FA5C04
:103BC00012BF4FF4806E4FF0050C4FF0000E5742BD
:103BD0005741FF02002C36D0012D3AD04FF08060C3
:103BE000042401211A464FF440550D9500251390E9
:103BF00014911792304641F2883205A9CDE9153467
:103C0000CDF81CC0CDF830E00E970B950CF0F2FB10
:103C10000028B5D102231022CDE900334FF48003F0
:103C20000290CDE90332694641F2883230460CF009
:103C300093FD401B18BF01204042A3E70122234609
:103C4000A7E70623ADE7012D0CD023464FF0807087
:103C5000C7E74FF000634FF08060052402214FF06A
:103C60000052C0E74FF000634FF08070F6E7F0B508
:103C70000D4695B00646144600214C2201A81F4669
:103C800019F00CFB2DB9012C40D14FF0FF3015B0CD
:103C9000F0BD0423611E4A424A41D20004930692B9
:103CA000002D36D0102347F28D2205934FF4806308
:103CB0000893631E03925A425A41D3020A934FF467
:103CC0004053002D099314BF4FF080634FF0807371
:103CD0004FEAC26207970F9311921ED0012C0CBFBE
:103CE0000223012341F28832304601A910930CF0DF
:103CF00081FB0028C9D141F2883230461AA90CF064
:103D000091FC003818BF01204042C0E701232A4639
:103D1000C4E772224FF48073CAE70123E2E7F0B5EB
:103D20000D4695B00646144600214C2201A81F46B8
:103D300019F0B4FA2DB9012C44D14FF0FF3015B071
:103D4000F0BD0423611E4A424A41D2000493069208
:103D5000002D3AD0102347F28E1205934FF4806362
:103D60000893631E03925A425A41D3020A934FF4B6
:103D70004053002D099314BF4FF080634FF08073C0
:103D80004FEAC26207970F93119227D0012C20D1DE
:103D90000523129302224FF000531092304641F255
:103DA000883201A913930CF025FB0028C5D141F2FC
:103DB000883230461A990CF079FC003818BF01207F
:103DC0004042BCE701232A46C0E771224FF48073CA
:103DD000C6E70423129301220023DEE7012CFAD167
:103DE000D8E770B50D4694B00646144600214C2223
:103DF00001A819F053FAD5B9012C1CD00123049362
:103E0000631E5C425C41E400069495B11023059367
:103E100046F2996341F28832304601A903930CF0CF
:103E2000E9FA003818BF0120404214B070BD0423E5
:103E3000E5E76623EEE74FF0FF30F6E770B50D4695
:103E400094B00646144600214C2201A819F026FA27
:103E5000BDB9012C1DD001232C4604930694B5B1A5
:103E60001023059349F6661341F28832304601A9C2
:103E700003930CF0BFFA003818BF0120404214B081
:103E800070BD631E5C425C41E4000423E5E79923B6
:103E9000EAE74FF0FF30F2E7044B82B0C3F85C0A68
:103EA000D3F85C320193019B02B070470080025648
:103EB00070B5044686B02020FFF7EEFF00231026E1
:103EC000039305930123CDE901630323064D01A963
:103ED0002846049304F010FA22463146284604F09E
:103EE00051FD06B070BD00BF00140256044B82B0F5
:103EF000C3F85C0AD3F85C320193019B02B07047AF
:103F0000008002562DE9F04F8BB018B900200BB09D
:103F1000BDE8F08F6F4B40F6F61503EB5003B3FB93
:103F2000F0F300935B000193009B4FF0100B03EB49
:103F30004304A5EB8305194600239A46DFF89CC18C
:103F4000C4F1FF2404F57F04E234DCF8002024EA05
:103F5000E47425EAE5758E46002740F279308645FF
:103F6000029707F1010750D900264FF01008B1461B
:103F7000B44244D8B54242D39B4540D0142000FB04
:103F800002FB5548013200EB0B0A40F80B30029857
:103F90007F2ACAE901092FD9CCF80020DCF80030CB
:103FA0000026069342F210734FF0FF320493019BF8
:103FB000494932330993019BC3F5905E0EF10C0E13
:103FC000069B9E422DD17F2AA0D814214A43424B02
:103FD0009918087C9B5840EA03704B681B0503F452
:103FE000700318438B681B0403F470231843CB68D9
:103FF0001B029BB218438AE79B464FF0010AB8F1B7
:10400000010809F101090E44B2D1102F8E44A4D148
:1040100000980133102B01449DD1BAF1000FBBD1A0
:10402000BCE7002700980B6803FB00030998AEEB80
:1040300003041844039001984FEA440B1D18A5F59A
:1040400011500A38039C029041F25C208442089788
:1040500007F1010735D90098A4F13205B0EB950FAF
:104060002FD20298D84605194FF480704FF00009FE
:10407000DDF80CC0059041F2470005F2836A8245E5
:10408000CDF81C9009F1010913D8BCF57A6F10D353
:10409000009860450DD2002DACBFAA46C2460498D8
:1040A000824506D2089ACDF810A00A61079ACA6024
:1040B000324605989C4401381D44A8EB030805903E
:1040C000D9D1B7F5807F1C44ABEB030BBCD10136D3
:1040D000143175E700CA9A3B8427133480271334C0
:1040E0000E4A08B51368013B13600BB1002008BDF0
:1040F0004FF400710A4804F017FB0A48022104F04B
:1041000013FB4FF40012084B0848C3F8642204F074
:10411000AFFE0028EAD06FF00700E8E784311334DF
:10412000001C025600080256009002562C27133439
:104130000023012210B54160C0E90232C0E9043316
:10414000C0E906330362044604F0D0FD014608B11D
:10415000012010BD204605F0A5F801460028F7D142
:10416000204605F0F9F8003818BF0120F1E70000FB
:104170002DE9F041284B294E86B03360284B1A6850
:104180001AB1002006B0BDE8F081012230461A6065
:1041900005F082F804460028F3D105F0DDFD80200B
:1041A000FFF7A4FE0420FFF7A1FE02274FF40073DF
:1041B00005464FF012080DEB000105901948CDE9B6
:1041C00001380394049704F097F817480DEB0501A4
:1041D000CDE90178CDE90347059504F08DF84FF45A
:1041E0000013124AC2F8643AD2F86412009100999E
:1041F000C2F8243A02F58052C2F8243206F05EFE7C
:10420000FFF780FE01463046FFF792FF0028B8D046
:104210006FF00700B6E700BF005400502C2713349E
:1042200084311334001C02560008025600800256E6
:104230001FB54FF47A740092CDE901340A46022387
:104240000146084804F05CFE002340B1054805F033
:1042500026F8042814BF6FF003036FF065031846B7
:1042600004B010BD2C2713341FB54FF47A7400929C
:10427000CDE901340A4602230146084804F024FF30
:10428000002340B1054805F00AF8042814BF6FF078
:1042900003036FF06503184604B010BD2C271334D8
:1042A00001F09AB9044B82B0C3F85C0AD3F85C32CF
:1042B0000193019B02B070470080025618B9034B6E
:1042C000DB680B6070476FF0010070478831133472
:1042D00010B508BB3424124B124A996004FB01212B
:1042E0000A6E1A604A6E5A608A6C042A04D102224D
:1042F0001A61DA60002010BD082A03D102221A6177
:104300000422F6E7062A03D103221A610122F0E70C
:104310000422C3E90302EDE76FF00100EBE700BF01
:1043200088311334A831133418B9034B1B680B6060
:1043300070476FF0010070478831133418B9034B90
:104340005B680B6070476FF0010070478831133471
:10435000F0B534270F4D460105EB401084680E4838
:10436000AD5907FB0400846C05FB0212C06D24B933
:1043700050F8222000201A60F0BD062C05BF02EB89
:104380004202125830F8122022F07F4218BF92B237
:10439000F0E700BF88311334A83113342DE9F0431E
:1043A0003427244E4FEA401C06EB40108468224D0F
:1043B00007FB0454D4F84880D4F85CE056F80C406D
:1043C00004FB0214B8F1000F04D14EF82430002091
:1043D000BDE8F083B8F1060F27D15FFA83F804EB4C
:1043E0004404AEF1030E04F80E8056F80C40C3F3FB
:1043F000072804FB021404EB44098468C3F3074351
:1044000007FB045EDEF85CE0AEF1020E09F80E80F8
:1044100056F80C4004FB0212816802EB420207FBD3
:104420000155E96D01395354D1E79BB22EF8143090
:10443000CDE700BF88311334A83113342DE9F84F8C
:1044400080460E4614461D460B9B03EB02090D4B9E
:1044500003EB401A4C4512D00A9B374603EB060B80
:1044600009E02B68394622464046FFF797FFDAF805
:10447000103001371D445F45F3D10134EAE70020D5
:10448000BDE8F88F883113342DE9F04F3426D3F886
:104490001240394F4FEA401885B0029457F808404F
:1044A00007EB401004FB02120469344980689D8BBD
:1044B00006FB0011CE6DD3F80AC004FB0266A5F11D
:1044C0002002072AD3F816A01BD9A5F11002072A4B
:1044D0008CBF4FF0010B4FF0020B4FF00009029A16
:1044E000ED0855430AF1FF3205FB02CC03EB0C0447
:1044F0006B42234D0393D14506D1002005B0BDE8A2
:10450000F08F4FF0000BE8E707EB0803DB681C486F
:10451000013B032B96BF1B4A0023D35C4FF4803230
:10452000C5E901230023FF22C5E9113BEB60EB64E1
:10453000154B2A652B6003F0F3FC88B9012128464E
:1045400003F02AFE60B90123324600932146029B04
:104550000B4803F06DFD18B93221094803F09EFDA8
:1045600007EB08031B6957F8082009F1010903FB51
:104570000266039B1C44BEE788311334A831133410
:1045800050321334D8EF1134001002582DE9F341A2
:104590001F46344B164603EB4013DA680D46DDE93F
:1045A0000814022A23D0042A3ED0012A54D0002223
:1045B0004FF44033DFF8B480C8E901322A4B40465B
:1045C000C8F80C10C8F8003003F0AAFC002846D147
:1045D00033462A4621464046009703F029FDF0BBAA
:1045E0003221404602B0BDE8F04103F057BD40F231
:1045F000031E40F20F2CC4F34510C4F3C4230EFB7A
:1046000000F00CFB03F304F01F040CFB04F4213056
:10461000173380099B090002173440EA034040EA3F
:10462000941040F07F44C3E7C4F3033303EB03105B
:10463000C4F3032303EB03131B0443EA006304F0F6
:104640000F0000EB00100343C4F3031004F0F00468
:10465000044443EA0424ABE744F07F44A8E702B0F3
:10466000BDE8F08188311334001002585032133401
:1046700073B515460D4C46011A4604EB4013A45978
:104680001E6904FB051134259C68094B05FB0433A6
:104690000024DD6D069B06FB01510193009401236C
:1046A000FFF774FF204602B070BD00BF883113349D
:1046B000A8311334F7B534270C4D460105EB4014EF
:1046C000AD59266902FB0511A468094A013D07FBA3
:1046D0000422D46D089A06FB014101920095012243
:1046E000FFF754FF002003B0F0BD00BF8831133442
:1046F000A8311334F7B5154634271A460C4B46013A
:1047000003EB40149B59266905FB0315A168094C6E
:104710009B1A07FB0144E16D099C009306FB051100
:10472000089B0194FFF732FF002003B0F0BD00BFEB
:1047300088311334A8311334F0B400240C4D03260F
:10474000C0E900540B254F191331C16284865119F9
:1047500080F836401332C0E9024404614661C56105
:1047600047628661056281620263F0BC05F0CAB8E7
:1047700000100058F0B514461C228FB006460F46B4
:104780000DEB0200002118F089FD20694FF4C06E86
:104790000590FF20069007202168A2686568E368FD
:1047A000CDE908E0606901910295039204930A90B3
:1047B0009B1A6D1A3A46304601A90B950C9305F0E9
:1047C00073F90FB0F0BD00B5E5B04FF4C872002129
:1047D000684618F063FD4FF080720023CDE9002396
:1047E0004FF000734FF04051469302236846CDE9E5
:1047F000201306F08FFC003818BF012065B05DF86B
:1048000004FB00002DE9F04F144618220E468DB02F
:10481000054600210DEB0200994618F03FFD012EE0
:1048200000F2DA80002D40F0D780022C40F2AD80FB
:10483000042C40F0D18002230825DFF8D481684A97
:10484000C8E903430224169B664EC8F80430664B41
:10485000DFF8C0B11A60654BC8F80090CBF80030A3
:10486000C6F87C4AD6F87C32DFF8ACA10093009BF6
:104870000120C6F83C4ACAF83C42FFF713FD204627
:10488000FFF710FD0820FFF70DFD1020FFF70AFDD0
:104890004020FFF707FD8020FFF704FD4FF4803034
:1048A000FFF700FD00230E27CDE9033448F28713FC
:1048B0004F4801A901930597029403F01DFD4FF69F
:1048C00014034C4801A90193059703F015FD4FF41B
:1048D0000343494801A90193059703F00DFD4FF4E7
:1048E0000063464801A90193059703F005FD41F6D1
:1048F0004313434801A90193059703F0FDFC582396
:10490000059701273F4801A9019303F0F5FC3B48B7
:1049100001A90194029703F0EFFC48233A4801A94A
:10492000CDE9013703F0E8FC4FF40053344801A906
:10493000CDE9013703F0E0FC3A460821324804F0A3
:1049400021F84FF400533A4619462D4804F01AF85E
:104950003A4640212C4804F015F8DBF80030234A91
:10496000934209D1C6F8604AD6F860320193019BA0
:10497000C6F8204ACAF820421B48FFF724FF70B14E
:104980006FF003000DB0BDE8F08F05D0012C0ABF19
:1049900003230423062550E7234604254DE7494613
:1049A000169A1148FFF7C8FE01460028E8D1169B69
:1049B000CDE90609CDE90935144B089006AA0A4845
:1049C0000B93FFF7D7FE0123002814BF6FF00300FD
:1049D0000020C8F81830D5E76FF00100D2E700BF1B
:1049E0000010005800800256A831133400100258FD
:1049F0000000025600040256000C02560010025637
:104A000000180256001C02560040025600002034D6
:104A10008831133450321334009002564FF4F0733F
:104A200007B5022200934FF44873FFF7EBFE03B083
:104A30005DF804FB08B5A8B91369022B0AD1042359
:104A400013610A48FFF796FE002814BF6FF00300B9
:104A5000002008BD042B01D10823F1E7002BF0D082
:104A60000623EDE76FF00100F3E700BFA831133430
:104A7000044B82B0C3F85C0AD3F85C320193019B0B
:104A800002B070470080025630B5204C85B0A27845
:104A900061781F48FFF762F818B16FF0040005B0A5
:104AA00030BD00904FF44073A27861781848FFF74A
:104AB000DEF80028F1D1A27861781548FFF74EF8AA
:104AC00003460028E9D101250095A27861781048B5
:104AD000FFF7CDF804460028DFD1282000F082FD42
:104AE000224629460A48FEF716FF03460028D4D17D
:104AF00003AA0092294602460548FFF710F900284C
:104B0000CBD19DF80C30AB42C9D0C6E7203313346B
:104B10002433133430B5274D274C85B02046AA786E
:104B20006978FFF71BF818B16FF0040005B030BDCD
:104B300000904FF440732046AA786978FFF797F801
:104B40000028F1D12046AA786978FFF707F80346D4
:104B50000028E9D1022200922046AA786978FFF75E
:104B600086F80028E0D1282000F03CFD4FF080734B
:104B7000E3604FF080532046E3620BF0FDFAA8B9E2
:104B8000012220461146FEF7C6FE03460028CBD17F
:104B900003AA0092012220461146FFF7C0F8002820
:104BA000C2D19DF80C30022BC0D0BDE76FF00300DE
:104BB000BCE700BF203313342433133401230F4ADE
:104BC0004FF0020CC0E900230B684A680361002320
:104BD0004262C3628A68C0E905C3C361036383603C
:104BE0000362CB688262012B4FF08073C36004BF05
:104BF0004FF08053C3620BF0BFBA00BF00A0025851
:104C0000014610B5B0B90D4C0D480BF08FFEA378DE
:104C100061785BB901220A48FEF7EBFE10B16FF034
:104C2000040010BD022300202370FAE70448FEF7B9
:104C300045FFF3E76FF00100F3E700BF20331334C3
:104C4000243313342DE9FF410D46164600285FD169
:104C5000324C2378022B5ED06378012B4FD101298F
:104C6000A27809D1964207D10123002023706570F4
:104C7000A67004B0BDE8F081294F01213846FEF747
:104C80006DFF034610B16FF00400F2E70090ADF83D
:104C90000C00A27838466178FEF7E9FF80460028CC
:104CA000F1D1282000F09EFCA378012B1BD000221C
:104CB0001B481146FEF72FFE03460028E3D103AA46
:104CC0000146009202461648FFF729F80028DAD17B
:104CD0009DF80C30002BD6D1012DC5D1A37893B906
:104CE000FFF718FF11E03846C7F80C80C7F82C8092
:104CF0000BF042FA0028DAD06FF00300B9E701297F
:104D0000B2D1002AECD1FFF7BFFE0028B1D1ABE74A
:104D10006FF00100ADE76FF01900AAE720331334FC
:104D2000243313342DE9F04789460446814E8EB072
:104D3000002840F0F880DFF8088298F8003053B17E
:104D400000256420002100FB04600BF0EFFD2846E5
:104D50000EB0BDE8F0874FF48053774A4FF48020BF
:104D6000C2F8603AD2F86012092500910099C2F8A1
:104D7000203A1A44C2F82032FFF77AFE04F0E4FF2A
:104D80000121022004F092FF4FF40050FFF770FE63
:104D90000127FFF76DFEFFF76BFEFFF769FEFFF7D8
:104DA00067FEFFF765FEFFF763FEFFF761FEFFF7A3
:104DB0005FFEFFF75DFEFFF75BFE02235F4805A97C
:104DC000CDE90533CDE90773099503F095FA5B4802
:104DD00005A90597099503F08FFA4023574805A9BF
:104DE00005930794099503F087FA0423534805A90E
:104DF0000593099503F080FA0823504805A9059307
:104E0000099503F079FA10234FF0200A4B4805A9C1
:104E10000593099503F070FA484805A9CDF814A048
:104E2000099503F069FA4FF48073444805A9059386
:104E3000099503F061FA4FF40073404805A9059302
:104E4000099503F059FA4FF480633C4805A905938E
:104E5000099503F051FA4FF4006305A9374805930B
:104E6000099503F049FA05A8FEF73CFD03230293D8
:104E7000059B93FAA3F3002BB3FA83F208BF5246C3
:104E800099F80130304601A9019203940493FFF789
:104E900095FE00284AD1224621463046FEF7A1FF62
:104EA00010B16FF004054CE7224621463046FEF76C
:104EB000C5FF0028F5D1224639463046FEF791FF5E
:104EC0000028EED1224639463046FEF7B7FF0028CB
:104ED000E7D13A4639463046FEF783FF0028E0D155
:104EE0003A4639463046FEF7A9FF0028D9D164205A
:104EF00088F8007088F8014088F8024000F072FBE2
:104F0000304698F8022098F80110FEF704FD0028BA
:104F1000C7D199F8012099F80010FFF793FE0028F7
:104F20003FF40EAFBDE76FF001050AE76FF0030530
:104F300007E700BF243313340080025600340256C2
:104F40002033133438B504460D4600204FF4800159
:104F50000AF04EFA0823134AA968C4E90023002284
:104F60004FF0C063C4E902232B68E263236101238D
:104F700063616B684FF08055A1620B216362B0FBE7
:104F8000F3F3C4E90B5108495B00B3FBF1F3043BB5
:104F90002046E261A261A3632262BDE838400BF0C3
:104FA000EBB800BF0050025840420F002DE9F04F0F
:104FB00004468BB0002840F00D81884E3378019371
:104FC000002B40F0F0804FF48020FFF751FD04F0FB
:104FD000B3FE01214FF020084FF40057084604F0BB
:104FE00065FE7F4B0924C3F8608AD3F8602201254F
:104FF0000492049A7B4AC3F8208AC2F82082C3F83C
:10500000607AD3F860124FF0030903910399C3F853
:10501000207AC2F8207202224FF48040FFF728FD68
:10502000FFF726FDFFF724FD4FF40040FFF720FDBA
:1050300005A9FFF71DFDFFF71BFDFFF719FDFFF7A2
:1050400017FDFFF715FDFFF713FDFFF711FD66488C
:10505000CDE90552CDE90894079503F04DF90423F5
:105060004FF0080B4FF0100A5F4805A9059309940B
:10507000079503F041F95C4805A90994CDF814B0EF
:10508000079503F039F9584805A90994CDF814A0FB
:10509000079503F031F9554805A909940595079539
:1050A00003F02AF90222514805A90592099403F058
:1050B00023F904234D4805A90593099403F01CF92D
:1050C0004A4805A90994CDF814B003F015F94748EA
:1050D00005A90994CDF814A003F00EF9434805A9D9
:1050E0000994CDF8148003F007F940233F4805A93F
:1050F0000994059303F000F980233C4805A909941D
:10510000059303F0F9F84FF48073384805A9099422
:10511000059303F0F1F84FF40073344805A909949E
:10512000059303F0E9F84FF48063304805A909942A
:10513000059303F0E1F84FF400632C4805A90994A6
:10514000059303F0D9F84FF48053284805A9059337
:10515000099403F0D1F8254805A90994059703F0AF
:10516000CBF84FF48043214805A90994059303F037
:10517000C3F84FF400431D4805A90994059303F0B3
:10518000BBF818230593019B194805A9CDF8189081
:105190000793FFF7D7FE002814BF6FF00304002425
:1051A00035707570B570302200211148FEF762FB32
:1051B000202204210E48FEF75DFB082140220C4806
:1051C000FEF758FB00210A480BF0B0FB20460BB05D
:1051D000BDE8F08F6FF00104F8E700BFB832133478
:1051E000008002560090025600380256003C0256DB
:1051F000BC32133407B568B9072200900123114669
:105200000648FEF7DCFA002818BF6FF0030003B071
:105210005DF804FB6FF00100F9E700BFBC32133406
:10522000444B454A70B501209A600225002243494B
:10523000434E01F58054C1F8180AC4F81802C4F8A6
:105240005802C3F8D820C3F8DC20C3F8E020C3F824
:10525000D800C3F8DC20C3F8E020C3F8D8500325F9
:10526000C3F8DC20C3F8E020C3F8D8500425C3F805
:10527000DC20C3F8E020C3F8D8500525C3F8DC20B3
:10528000C3F8E020C3F8D8500625C3F8DC20C3F8E3
:10529000E020C3F8D8500725C3F8DC20C3F8E0208D
:1052A000C3F8D850C3F8DC20C3F8E020C1F8780A6E
:1052B000D1F878229A683261224AD56B45F480553C
:1052C000D563D56B45F01005D563D26BD1F8742248
:1052D00042F40042C1F87422D1F8782242F0100260
:1052E000C1F87822D1F87822D1F8782222F0100281
:1052F000C1F878224FF44052C1F8202AC4F8202285
:105300004022C1F8240AC4F82402C4F86402C4F894
:105310005C223269C4F87802D3F8882042F4700223
:10532000C3F88820084AD2F8883043F47003C2F8E2
:10533000883070BD00ED00E00004003400800256AB
:10534000008000560048025600ED02E06E4BF0B5BA
:105350001A6A02F44012B2F5001F00F0B88006D8B5
:1053600062B99A6C694BC2F3C112D34003E0B2F543
:10537000401F0BD00023664A1360F0BD5B6C654A8A
:1053800013F4007F644B08BF1346F4E7D3F8C4203E
:1053900002F04052B2F1805F2AD0B2F1005F36D005
:1053A000002A43D1D3F880703D0107F0E04100F1BD
:1053B0009680D3F88400D3F88820C7F30B2420F01C
:1053C0007F400E46B6F1005FC2F3C265C7F30551D8
:1053D000C2F302624FD07CD8002E3CD000264A4B4C
:1053E0004C4F5B6C13F4007F4B4B08BF3B4638E0DF
:1053F000D3F890703C0107F0E04170D4D3F89400EA
:10540000C7F30B24D3F8982020F07F40D9E7D3F8D6
:10541000A070380107F0E04161D4D3F8A400C7F3CD
:105420000B24D3F8A82020F07F40CAE7D3F8B0704F
:105430003A0107F0E04152D4D3F8B400C7F30B248B
:10544000D3F8B82020F07F40BBE70A460D46084657
:105450000C464FF000662C4B9F6C2C4BC7F3C117CA
:10546000FB404EB1284AD2F8C420C2F307420132B1
:10547000B3FBF2F37FE7294B07EE100AB8EEC76AD9
:1054800007EE104A07EE903ADFED256AB8EEC77ACC
:10549000F8EEE77AA6EE267A67EE877A07EE101A1C
:1054A000B8EEC77AC7EE876A07EE905AB8EEE77A89
:1054B00007EE902AF8EEE77A27EE277AC6EE877A8B
:1054C000FCEEE77A17EE903ACCE7144BCAE7134BA1
:1054D00051E7B6F1405F134B18BF0023CCE7B1F1A1
:1054E000005FF2D009D80029AFD000224FF000664B
:1054F000154610461446114671E7B1F1405F094B5D
:1055000018BF0023AEE700BF008002560090D00312
:105510005091123400093D000024F400006CDC02BC
:10552000000080330080BB006DED81CF00B5FFF738
:105530000DFF054B5DF804EB18689FEC100A9FE81F
:105540000E90FDEC81CF74475091123470470000EB
:1055500038B50F4B05461A780AB9012038BD4FF40B
:105560007A73B3FBF2F30B4A1068B0FBF3F000F070
:10557000F1F904460028F0D10F2DEED80246294655
:105580004FF0FF3000F074F9034B20461D60E5E753
:1055900054911234509112345891123410B50320A2
:1055A00000F048F9FFF7D2FE0F20FFF7D1FF0446C5
:1055B00018B9FFF7CBFF204610BD0124FBE7000020
:1055C000034A044B11681B780B441360704700BFFB
:1055D0008833133454911234014B1868704700BF5C
:1055E0008833133438B50446FFF7F6FF0546631CCD
:1055F0001EBF044B1B78E418FFF7EEFF431BA342CA
:10560000FAD338BD5491123470B504460D46FFF7F5
:10561000E3FF06462CB122681B4B9A4203D00123BC
:105620006360012070BDB5F5BC7FF8D26B0903F54E
:10563000087352F82310012305F01F0083400B422A
:105640001FD1D2F8043C23F4C34323F07F032B4340
:10565000C2F8043C2368D3F8442ED20709D4D3F807
:10566000440E10F48C00DDD0D3F8443E03F48C03D8
:10567000D6E7FFF7B1FF801BB0F57A7FEAD90A239E
:10568000CEE70423CCE700BF0090005670B50E466D
:105690001546044630B11AB10268094B9A4203D04C
:1056A00001236360012070BDB1F5BC7FF8D2FFF724
:1056B000ABFF0028F6D1236853F826302B60F2E7C1
:1056C000009000562DE9F74304460E4617469946CA
:1056D000FFF782FF80462CB12268284B9A4205D002
:1056E00001236360012003B0BDE8F08339F48043F7
:1056F00004D04FF4DD712248FDF7D8FAB6F5BC7F2F
:10570000EED22268730903F5007352F823100123C7
:1057100006F01F0083400B422ED1C2F8087CD2F85D
:10572000045C25F4C34525F07F05354345EA0905AA
:1057300045F40055C2F8045C2368D3F8442ED20720
:1057400006D4D3F8443EDB030BD54FF48033C8E7CF
:10575000FFF742FFA0EB0800B0F57A7FECD90A23EF
:10576000BFE73146204601AAFFF790FF0028B9D1D4
:10577000019BBB42E9D1B6E70423B2E70090005693
:105780009861023438B5044650B30368154A934211
:1057900008D002F17042934204D04FF4B571124820
:1057A000FDF784FA23685B68D90707D400202268D4
:1057B000A060136843F00103136038BDFFF70CFFCE
:1057C000054623685B68DB07F0D5FFF705FF401B44
:1057D0000128F6D923685B68DA07F2D41023A360A6
:1057E0000120EAE700FC0D582E62023410B5044691
:1057F000C8B103680D4A934207D002F17042934248
:1058000003D0BC210A48FDF751FA237913B9204689
:10581000FDF732FA0023A360012323712046BDE87F
:105820001040FFF7AFBF012010BD00BF00FC0D58B6
:105830002E620234C31E042B10B5044603D9E621A0
:105840000948FDF733FA09492302CA6803F4E06303
:1058500022F4E0621204120C134343F0BF6343F4DA
:105860000033CB6010BD00BFC862023400ED00E021
:1058700010F10C0F2DE9F04105460C46174601DBEF
:10588000031D03D1FF212648FDF710FA254BDE68E2
:10589000C6F30226022E06D857B14FF48171204874
:1058A000FDF704FA04E00123F21E9340BB42F4D951
:1058B0000F2CC6F1070804D8012303FA08F3A3420A
:1058C00004D840F203111648FDF7F0F9B8F1040FBF
:1058D00006F1040328BF4FF004084FF0FF32062BF7
:1058E000A6F1030698BF002602FA08F824EA080386
:1058F000B24027EA0207B340002D43EA0703ACBFDA
:1059000005F16045084A4FEA0313DBB2ABBF05F56A
:10591000614505F00F0585F800335355BDE8F0816A
:10592000C862023400ED00E014ED00E0002808DB5E
:1059300001234109054A00F01F00834042F821304D
:10594000704740F215110248FDF7B0B900E100E0E0
:10595000C86202340138B0F1807F0BD24FF0E023EF
:10596000F021054A586182F823100020072298612F
:105970001A6170470120704700ED00E0F8B5144649
:10598000036871BBD3F8042422F4C01242EAC44273
:10599000C3F80424234B022C1A6838D0032C39D0C6
:1059A000012C3AD142F040021A60FFF715FE4FF485
:1059B000003607461B4DA640FFF70EFEC01BB0F594
:1059C0007A7F2DD8D5F8903036EA0303F4D14FF41E
:1059D00088530020D5F88020A3401343C5F88030B9
:1059E000F8BD0129D3F8042806D122F4C01242EAF6
:1059F000C442C3F80428CDE7520341BFD3F8042CB6
:105A000022F4C01242EAC442C3F8042CC2E742F4B2
:105A10008062C9E742F48042C6E742F00402C3E76D
:105A20000120DDE700600058012930B54FF0020584
:105A3000046810D18571D4F800190B43C4F80039FB
:105A4000C4F8C429D4F8F03343F4060343F0200328
:105A5000C4F8F03330BD08444571D4F8001D0B4341
:105A6000C4F8003DC4F8C42DD4F8F03343F0064325
:105A7000ECE770B415461E4699B9022301684371DC
:105A8000D1F800253243C1F80025C1F8C455D1F83A
:105A9000F03370BC43F4064343F02003C1F8F03305
:105AA000704770BCFFF7C0BF022383710368D3F84F
:105AB000042842F00042C3F80428D3F8002942F039
:105AC0000802C3F80029704769B90368D3F80424B1
:105AD00042F00042C3F80424D3F8002542F0080243
:105AE000C3F800257047012901D1FFF7DDBF036826
:105AF000D3F8042C42F00042C3F8042CD3F8002D54
:105B000042F00802C3F8002D70470000184B10B592
:105B10005A69C9B242F480325A611A6942F00102EC
:105B20001A615A6942F480325A6100221A615A613C
:105B30005C695C611C6944F001041C611A615C6968
:105B400044F480345C611C6944F001041C615C69AC
:105B5000044344F480345C611A615A61586901431A
:105B60005961196941F0010119611A6110BD00BF45
:105B70000070005810B50446D8B103680E4A93422D
:105B800008D002F17042934204D04FF4A7710B4841
:105B9000FDF78CF8237913B920460BF083FA032321
:105BA0000020237101236071A071E071A060237156
:105BB00010BD0120FCE700BF0020005860630234E4
:105BC0002DE9F0410546FEB00C464FF4FC726846E4
:105BD000544917F0FAFD1DB901207EB0BDE8F081EF
:105BE000002CF9D02B68504A934208D002F1704241
:105BF000934204D040F28B214C48FDF757F82368BC
:105C0000B3F5807F07D0B3F5007F04D04FF4237144
:105C10004648FDF74BF86368013B012B04D940F27D
:105C20008D214248FDF742F8A3683E2B04D940F28B
:105C30008E213E48FDF73AF83D4B1A6822F00102EA
:105C40001A60616801291AD1226842F404121A67A5
:105C50001A6842F001021A60D3F8802042F0B04284
:105C600042F40412C3F880202268B2F5807FD3F892
:105C7000842054D1012908D142F01F0207E00229F3
:105C8000AAD1226842F49012E1E742F4F8520026C9
:105C9000284DC3F884202B68254F23F002032B6086
:105CA0007E602B69012043F001032B61FFF79AFC12
:105CB0002E61D4F80880AB685DF8382023F4FE43E9
